{
  "_format": "hh3-artifact-1",
  "contractName": "XyraChain",
  "sourceName": "contracts/XyraChain.sol",
  "abi": [
    {
      "anonymous": false,
      "inputs": [
        {
          "indexed": true,
          "internalType": "address",
          "name": "user",
          "type": "address"
        },
        {
          "indexed": false,
          "internalType": "string",
          "name": "ipfsHash",
          "type": "string"
        },
        {
          "indexed": false,
          "internalType": "uint256",
          "name": "timestamp",
          "type": "uint256"
        }
      ],
      "name": "ReportAdded",
      "type": "event"
    },
    {
      "inputs": [
        {
          "internalType": "string",
          "name": "_hash",
          "type": "string"
        },
        {
          "internalType": "string",
          "name": "_diagnosis",
          "type": "string"
        },
        {
          "internalType": "uint256",
          "name": "_confidence",
          "type": "uint256"
        }
      ],
      "name": "addReport",
      "outputs": [],
      "stateMutability": "nonpayable",
      "type": "function"
    },
    {
      "inputs": [],
      "name": "getMyReports",
      "outputs": [
        {
          "components": [
            {
              "internalType": "string",
              "name": "ipfsHash",
              "type": "string"
            },
            {
              "internalType": "string",
              "name": "diagnosis",
              "type": "string"
            },
            {
              "internalType": "uint256",
              "name": "confidence",
              "type": "uint256"
            },
            {
              "internalType": "uint256",
              "name": "timestamp",
              "type": "uint256"
            }
          ],
          "internalType": "struct XyraChain.Report[]",
          "name": "",
          "type": "tuple[]"
        }
      ],
      "stateMutability": "view",
      "type": "function"
    }
  ],
  "bytecode": "0x6080604052348015600e575f5ffd5b50610a938061001c5f395ff3fe608060405234801561000f575f5ffd5b5060043610610034575f3560e01c8063681dbbbf146100385780639c98e95a14610056575b5f5ffd5b610040610072565b60405161004d91906104fd565b60405180910390f35b610070600480360381019061006b9190610684565b61023b565b005b60605f5f3373ffffffffffffffffffffffffffffffffffffffff1673ffffffffffffffffffffffffffffffffffffffff1681526020019081526020015f20805480602002602001604051908101604052809291908181526020015f905b82821015610232578382905f5260205f2090600402016040518060800160405290815f820180546100ff90610739565b80601f016020809104026020016040519081016040528092919081815260200182805461012b90610739565b80156101765780601f1061014d57610100808354040283529160200191610176565b820191905f5260205f20905b81548152906001019060200180831161015957829003601f168201915b5050505050815260200160018201805461018f90610739565b80601f01602080910402602001604051908101604052809291908181526020018280546101bb90610739565b80156102065780601f106101dd57610100808354040283529160200191610206565b820191905f5260205f20905b8154815290600101906020018083116101e957829003601f168201915b5050505050815260200160028201548152602001600382015481525050815260200190600101906100cf565b50505050905090565b5f5f3373ffffffffffffffffffffffffffffffffffffffff1673ffffffffffffffffffffffffffffffffffffffff1681526020019081526020015f20604051806080016040528085815260200184815260200183815260200142815250908060018154018082558091505060019003905f5260205f2090600402015f909190919091505f820151815f0190816102d19190610909565b5060208201518160010190816102e79190610909565b50604082015181600201556060820151816003015550503373ffffffffffffffffffffffffffffffffffffffff167f9f80e5323fe5414c9173d0be847ade9dab496ae7b8165a2215696d1ba7a801b58442604051610346929190610a2f565b60405180910390a2505050565b5f81519050919050565b5f82825260208201905092915050565b5f819050602082019050919050565b5f81519050919050565b5f82825260208201905092915050565b8281835e5f83830152505050565b5f601f19601f8301169050919050565b5f6103be8261037c565b6103c88185610386565b93506103d8818560208601610396565b6103e1816103a4565b840191505092915050565b5f819050919050565b6103fe816103ec565b82525050565b5f608083015f8301518482035f86015261041e82826103b4565b9150506020830151848203602086015261043882826103b4565b915050604083015161044d60408601826103f5565b50606083015161046060608601826103f5565b508091505092915050565b5f6104768383610404565b905092915050565b5f602082019050919050565b5f61049482610353565b61049e818561035d565b9350836020820285016104b08561036d565b805f5b858110156104eb57848403895281516104cc858261046b565b94506104d78361047e565b925060208a019950506001810190506104b3565b50829750879550505050505092915050565b5f6020820190508181035f830152610515818461048a565b905092915050565b5f604051905090565b5f5ffd5b5f5ffd5b5f5ffd5b5f5ffd5b7f4e487b71000000000000000000000000000000000000000000000000000000005f52604160045260245ffd5b61056c826103a4565b810181811067ffffffffffffffff8211171561058b5761058a610536565b5b80604052505050565b5f61059d61051d565b90506105a98282610563565b919050565b5f67ffffffffffffffff8211156105c8576105c7610536565b5b6105d1826103a4565b9050602081019050919050565b828183375f83830152505050565b5f6105fe6105f9846105ae565b610594565b90508281526020810184848401111561061a57610619610532565b5b6106258482856105de565b509392505050565b5f82601f8301126106415761064061052e565b5b81356106518482602086016105ec565b91505092915050565b610663816103ec565b811461066d575f5ffd5b50565b5f8135905061067e8161065a565b92915050565b5f5f5f6060848603121561069b5761069a610526565b5b5f84013567ffffffffffffffff8111156106b8576106b761052a565b5b6106c48682870161062d565b935050602084013567ffffffffffffffff8111156106e5576106e461052a565b5b6106f18682870161062d565b925050604061070286828701610670565b9150509250925092565b7f4e487b71000000000000000000000000000000000000000000000000000000005f52602260045260245ffd5b5f600282049050600182168061075057607f821691505b6020821081036107635761076261070c565b5b50919050565b5f819050815f5260205f209050919050565b5f6020601f8301049050919050565b5f82821b905092915050565b5f600883026107c57fffffffffffffffffffffffffffffffffffffffffffffffffffffffffffffffff8261078a565b6107cf868361078a565b95508019841693508086168417925050509392505050565b5f819050919050565b5f61080a610805610800846103ec565b6107e7565b6103ec565b9050919050565b5f819050919050565b610823836107f0565b61083761082f82610811565b848454610796565b825550505050565b5f5f905090565b61084e61083f565b61085981848461081a565b505050565b5b8181101561087c576108715f82610846565b60018101905061085f565b5050565b601f8211156108c15761089281610769565b61089b8461077b565b810160208510156108aa578190505b6108be6108b68561077b565b83018261085e565b50505b505050565b5f82821c905092915050565b5f6108e15f19846008026108c6565b1980831691505092915050565b5f6108f983836108d2565b9150826002028217905092915050565b6109128261037c565b67ffffffffffffffff81111561092b5761092a610536565b5b6109358254610739565b610940828285610880565b5f60209050601f831160018114610971575f841561095f578287015190505b61096985826108ee565b8655506109d0565b601f19841661097f86610769565b5f5b828110156109a657848901518255600182019150602085019450602081019050610981565b868310156109c357848901516109bf601f8916826108d2565b8355505b6001600288020188555050505b505050505050565b5f82825260208201905092915050565b5f6109f28261037c565b6109fc81856109d8565b9350610a0c818560208601610396565b610a15816103a4565b840191505092915050565b610a29816103ec565b82525050565b5f6040820190508181035f830152610a4781856109e8565b9050610a566020830184610a20565b939250505056fea2646970667358221220461aea590faa7eef08fdc2d7f8a7f8b7ad9b58e9089824b75fe519be019fe86d64736f6c634300081c0033",
  "linkReferences": {},
  "deployedLinkReferences": {},
  "immutableReferences": {},
  "inputSourceName": "project/contracts/XyraChain.sol",
  "buildInfoId": "solc-0_8_28-b4f9b84bcee6cbbce43ed8e7aed7bb3f90c71c1b"
}